{"abi":[{"type":"constructor","inputs":[{"name":"_usdc","type":"address","internalType":"contract IERC20"}],"stateMutability":"nonpayable"},{"type":"function","name":"createObjective","inputs":[{"name":"name","type":"string","internalType":"string"},{"name":"targetAmount","type":"uint256","internalType":"uint256"},{"name":"padrinhoHint","type":"address","internalType":"address"}],"outputs":[{"name":"vault","type":"address","internalType":"address"}],"stateMutability":"nonpayable"},{"type":"function","name":"getObjectivesByAfilhado","inputs":[{"name":"_afilhado","type":"address","internalType":"address"}],"outputs":[{"name":"","type":"address[]","internalType":"address[]"}],"stateMutability":"view"},{"type":"function","name":"getObjectivesByPadrinho","inputs":[{"name":"_padrinho","type":"address","internalType":"address"}],"outputs":[{"name":"","type":"address[]","internalType":"address[]"}],"stateMutability":"view"},{"type":"function","name":"usdc","inputs":[],"outputs":[{"name":"","type":"address","internalType":"contract IERC20"}],"stateMutability":"view"},{"type":"event","name":"ObjectiveCreated","inputs":[{"name":"vault","type":"address","indexed":true,"internalType":"address"},{"name":"afilhado","type":"address","indexed":true,"internalType":"address"},{"name":"targetAmount","type":"uint256","indexed":false,"internalType":"uint256"},{"name":"name","type":"string","indexed":false,"internalType":"string"}],"anonymous":false},{"type":"event","name":"PadrinhoInvitedOnCreate","inputs":[{"name":"vault","type":"address","indexed":true,"internalType":"address"},{"name":"padrinho","type":"address","indexed":true,"internalType":"address"}],"anonymous":false}],"bytecode":{"object":"0x60a060405234801561000f575f5ffd5b5060405161307138038061307183398101604081905261002e91610099565b6001600160a01b0381166100885760405162461bcd60e51b815260206004820152601a60248201527f50616472696e686f466163746f72793a207a65726f2075736463000000000000604482015260640160405180910390fd5b6001600160a01b03166080526100c6565b5f602082840312156100a9575f5ffd5b81516001600160a01b03811681146100bf575f5ffd5b9392505050565b608051612f8d6100e45f395f8181607c01526101c20152612f8d5ff3fe608060405234801561000f575f5ffd5b506004361061004a575f3560e01c806306e5a7291461004e5780633e413bee146100775780639740a9d4146100b65780639aae8c83146100c9575b5f5ffd5b61006161005c366004610340565b6100dc565b60405161006e9190610360565b60405180910390f35b61009e7f000000000000000000000000000000000000000000000000000000000000000081565b6040516001600160a01b03909116815260200161006e565b6100616100c4366004610340565b61014d565b61009e6100d73660046103ab565b6101be565b6001600160a01b0381165f908152602081815260409182902080548351818402810184019094528084526060939283018282801561014157602002820191905f5260205f20905b81546001600160a01b03168152600190910190602001808311610123575b50505050509050919050565b6001600160a01b0381165f9081526001602090815260409182902080548351818402810184019094528084526060939283018282801561014157602002820191905f5260205f209081546001600160a01b031681526001909101906020018083116101235750505050509050919050565b5f5f7f000000000000000000000000000000000000000000000000000000000000000033858888876040516101f290610318565b61020196959493929190610458565b604051809103905ff08015801561021a573d5f5f3e3d5ffd5b50335f818152602081815260408083208054600181018255908452919092200180546001600160a01b0319166001600160a01b038516908117909155905192945084935090917f1ee72eeba2f9aa70297615445733e843d5b582e76c563235b56a9df258e1965b906102919088908b908b906104a6565b60405180910390a36001600160a01b0383161561030f576001600160a01b038381165f81815260016020818152604080842080549384018155845290832090910180546001600160a01b0319169487169485179055519192917f028010910a8c921d473e4a3fffc914d51cb3b4903cdb8f4a4baafa9d27d2fb129190a35b50949350505050565b612a8f806104c983390190565b80356001600160a01b038116811461033b575f5ffd5b919050565b5f60208284031215610350575f5ffd5b61035982610325565b9392505050565b602080825282518282018190525f918401906040840190835b818110156103a05783516001600160a01b0316835260209384019390920191600101610379565b509095945050505050565b5f5f5f5f606085870312156103be575f5ffd5b843567ffffffffffffffff8111156103d4575f5ffd5b8501601f810187136103e4575f5ffd5b803567ffffffffffffffff8111156103fa575f5ffd5b87602082840101111561040b575f5ffd5b602091820195509350850135915061042560408601610325565b905092959194509250565b81835281816020850137505f828201602090810191909152601f909101601f19169091010190565b6001600160a01b038781168252861660208201526040810185905260a0606082018190525f9061048b9083018587610430565b905060018060a01b0383166080830152979650505050505050565b838152604060208201525f6104bf604083018486610430565b9594505050505056fe60c060405234801561000f575f5ffd5b50604051612a8f380380612a8f83398101604081905261002e91610393565b8482604051602001610040919061049a565b6040516020818303038152906040528360405160200161006091906104ce565b60408051601f19818403018152919052600361007c8382610572565b5060046100898282610572565b5050505f5f61009d8361028260201b60201c565b91509150816100ad5760126100af565b805b60ff1660a05250506001600160a01b039081166080526001600555841661011d5760405162461bcd60e51b815260206004820152601c60248201527f50616472696e686f5661756c743a207a65726f206166696c6861646f0000000060448201526064015b60405180910390fd5b5f831161016c5760405162461bcd60e51b815260206004820152601a60248201527f50616472696e686f5661756c743a207a65726f207461726765740000000000006044820152606401610114565b836001600160a01b0316816001600160a01b0316036101db5760405162461bcd60e51b815260206004820152602560248201527f50616472696e686f5661756c743a2063616e6e6f74206265206f776e2070616460448201526472696e686f60d81b6064820152608401610114565b600680546001600160a01b0319166001600160a01b0386161790556009839055600a6102078382610572565b50600b805461ffff191690556001600160a01b0381161561027857600880546001600160a01b0319166001600160a01b038316908117909155600b805461ff0019166101001790556040517f49a9d77c737f41528b37cf2e8d6a5ec00109a108cb5a8dde3c96080c787ef161905f90a25b505050505061064e565b60408051600481526024810182526020810180516001600160e01b031663313ce56760e01b17905290515f918291829182916001600160a01b038716916102c89161062c565b5f60405180830381855afa9150503d805f8114610300576040519150601f19603f3d011682016040523d82523d5f602084013e610305565b606091505b509150915081801561031957506020815110155b1561034c575f818060200190518101906103339190610637565b905060ff811161034a576001969095509350505050565b505b505f9485945092505050565b6001600160a01b038116811461036c575f5ffd5b50565b805161037a81610358565b919050565b634e487b7160e01b5f52604160045260245ffd5b5f5f5f5f5f60a086880312156103a7575f5ffd5b85516103b281610358565b60208701519095506103c381610358565b6040870151606088015191955093506001600160401b038111156103e5575f5ffd5b8601601f810188136103f5575f5ffd5b80516001600160401b0381111561040e5761040e61037f565b604051601f8201601f19908116603f011681016001600160401b038111828210171561043c5761043c61037f565b6040528181528282016020018a1015610453575f5ffd5b8160208401602083015e5f602083830101528094505050506104776080870161036f565b90509295509295909350565b5f81518060208401855e5f93019283525090919050565b6802830b23934b73437960bd1b81525f6104b76009830184610483565b662053686172657360c81b81526007019392505050565b64705041442d60d81b81525f6104e76005830184610483565b9392505050565b600181811c9082168061050257607f821691505b60208210810361052057634e487b7160e01b5f52602260045260245ffd5b50919050565b601f82111561056d57805f5260205f20601f840160051c8101602085101561054b5750805b601f840160051c820191505b8181101561056a575f8155600101610557565b50505b505050565b81516001600160401b0381111561058b5761058b61037f565b61059f8161059984546104ee565b84610526565b6020601f8211600181146105d1575f83156105ba5750848201515b5f19600385901b1c1916600184901b17845561056a565b5f84815260208120601f198516915b8281101561060057878501518255602094850194600190920191016105e0565b508482101561061d57868401515f19600387901b60f8161c191681555b50505050600190811b01905550565b5f6104e78284610483565b5f60208284031215610647575f5ffd5b5051919050565b60805160a05161240b6106845f395f61087301525f81816103800152818161057e015281816116ba015261177a015261240b5ff3fe608060405234801561000f575f5ffd5b506004361061024a575f3560e01c806370a0823111610140578063b460af94116100bf578063c6e6f59211610084578063c6e6f592146104ee578063ce96cb7714610501578063d3a17ff714610514578063d905777e1461051c578063dd62ed3e1461052f578063ef8b30f7146104ee575f5ffd5b8063b460af94146104ad578063ba087652146104c0578063ba2d5168146104d3578063bbb4d3e9146104e6578063c63d75b6146103a4575f5ffd5b806395d89b411161010557806395d89b4114610458578063a9059cbb14610460578063aa9ff7c614610473578063b1683eae14610492578063b3d7f6b91461049a575f5ffd5b806370a08231146103f957806372be3f6214610421578063886aed6f1461042957806394bf804d1461043c578063953b8fb81461044f575f5ffd5b8063311c56df116101cc5780634cdad506116101915780634cdad506146102a9578063564a8a77146103b8578063601ae023146103c05780636116b306146103d35780636e553f65146103e6575f5ffd5b8063311c56df1461033c578063313ce56714610351578063344927311461036b57806338d52e0f1461037e578063402d267d146103a4575f5ffd5b80630a28a477116102125780630a28a477146102df57806318160ddd146102f2578063200d2ed2146102fa5780632384427f1461031457806323b872dd14610329575f5ffd5b806301e1d1141461024e5780630641787b1461026957806306fdde031461029457806307a2d13a146102a9578063095ea7b3146102bc575b5f5ffd5b610256610567565b6040519081526020015b60405180910390f35b60075461027c906001600160a01b031681565b6040516001600160a01b039091168152602001610260565b61029c6105f4565b6040516102609190611cff565b6102566102b7366004611d11565b610684565b6102cf6102ca366004611d43565b610695565b6040519015158152602001610260565b6102566102ed366004611d11565b6106ac565b600254610256565b600b546103079060ff1681565b6040516102609190611d7f565b610327610322366004611dde565b6106b8565b005b6102cf610337366004611e1d565b610769565b61034461078e565b6040516102609190611e57565b61035961086c565b60405160ff9091168152602001610260565b610327610379366004611e94565b610897565b7f000000000000000000000000000000000000000000000000000000000000000061027c565b6102566103b2366004611e94565b505f1990565b610327610a55565b60085461027c906001600160a01b031681565b60065461027c906001600160a01b031681565b6102566103f4366004611ead565b610b27565b610256610407366004611e94565b6001600160a01b03165f9081526020819052604090205490565b61029c610cbd565b610327610437366004611dde565b610d49565b61025661044a366004611ead565b610e13565b61025660095481565b61029c610e36565b6102cf61046e366004611d43565b610e45565b600b5461048590610100900460ff1681565b6040516102609190611ed7565b610327610e52565b6102566104a8366004611d11565b610f8c565b6102566104bb366004611eeb565b610f98565b6102566104ce366004611eeb565b610fee565b6103276104e1366004611f24565b61103b565b610327611324565b6102566104fc366004611d11565b6113ed565b61025661050f366004611e94565b6113f8565b61032761141a565b61025661052a366004611e94565b6114f4565b61025661053d366004611f6c565b6001600160a01b039182165f90815260016020908152604080832093909416825291909152205490565b6040516370a0823160e01b81523060048201525f907f00000000000000000000000000000000000000000000000000000000000000006001600160a01b0316906370a0823190602401602060405180830381865afa1580156105cb573d5f5f3e3d5ffd5b505050506040513d601f19601f820116820180604052508101906105ef9190611f94565b905090565b60606003805461060390611fab565b80601f016020809104026020016040519081016040528092919081815260200182805461062f90611fab565b801561067a5780601f106106515761010080835404028352916020019161067a565b820191905f5260205f20905b81548152906001019060200180831161065d57829003601f168201915b5050505050905090565b5f61068f825f611511565b92915050565b5f336106a2818585611549565b5060019392505050565b5f61068f826001611556565b6007546001600160a01b031633146106eb5760405162461bcd60e51b81526004016106e290611fe3565b60405180910390fd5b600e5460ff1661070d5760405162461bcd60e51b81526004016106e29061201a565b5f600c8181559061071f600d82611c7f565b50600201805460ff191690556040517fdf389fcef823e182e7020379b3aa080a5f42e60ecf97caddaeec5788def026c59061075d9084908490612083565b60405180910390a15050565b5f33610776858285611585565b6107818585856115ed565b60019150505b9392505050565b6107b260405180606001604052805f8152602001606081526020015f151581525090565b6040805160608101909152600c80548252600d80546020840191906107d690611fab565b80601f016020809104026020016040519081016040528092919081815260200182805461080290611fab565b801561084d5780601f106108245761010080835404028352916020019161084d565b820191905f5260205f20905b81548152906001019060200180831161083057829003601f168201915b50505091835250506002919091015460ff161515602090910152919050565b5f6105ef817f00000000000000000000000000000000000000000000000000000000000000006120aa565b6006546001600160a01b031633146108c15760405162461bcd60e51b81526004016106e2906120c3565b6001600160a01b0381166109175760405162461bcd60e51b815260206004820152601b60248201527f50616472696e686f5661756c743a207a65726f2061646472657373000000000060448201526064016106e2565b6006546001600160a01b03908116908216036109835760405162461bcd60e51b815260206004820152602560248201527f50616472696e686f5661756c743a2063616e6e6f74206265206f776e2070616460448201526472696e686f60d81b60648201526084016106e2565b6002600b54610100900460ff1660028111156109a1576109a1611d6b565b036109fd5760405162461bcd60e51b815260206004820152602660248201527f50616472696e686f5661756c743a2070616472696e686f20616c72656164792060448201526561637469766560d01b60648201526084016106e2565b600880546001600160a01b0319166001600160a01b038316908117909155600b805461ff0019166101001790556040517f49a9d77c737f41528b37cf2e8d6a5ec00109a108cb5a8dde3c96080c787ef161905f90a250565b6007546001600160a01b03163314610a7f5760405162461bcd60e51b81526004016106e290611fe3565b600e5460ff1615610ae05760405162461bcd60e51b815260206004820152602560248201527f50616472696e686f5661756c743a2070656e64696e6720726571756573742065604482015264786973747360d81b60648201526084016106e2565b600780546001600160a01b0319169055600b805461ff001916905560405133907f80a1a8375b89a0cb8e7af17e4ea68ceca227b7037edfbf41c407e6dcfed8ba7d905f90a2565b5f610b3061164a565b5f600b5460ff166001811115610b4857610b48611d6b565b14610b655760405162461bcd60e51b81526004016106e2906120fa565b6006546001600160a01b03838116911614610bd35760405162461bcd60e51b815260206004820152602860248201527f50616472696e686f5661756c743a207265636569766572206d757374206265206044820152676166696c6861646f60c01b60648201526084016106e2565b5f8311610c225760405162461bcd60e51b815260206004820152601b60248201527f50616472696e686f5661756c743a207a65726f206465706f736974000000000060448201526064016106e2565b610c2c8383611674565b90505f610c37610567565b604080518681526020810183905291925033917f73a19dd210f1a7f902193214c0ee91dd35ee5b4d920cba8d519eca65a7b488ca910160405180910390a26009548110610cb2576040518181527ffbfd8ab7c24300fa9888cd721c8565a7da56759384781283684dcf7c7c4a846b9060200160405180910390a15b5061068f6001600555565b600a8054610cca90611fab565b80601f0160208091040260200160405190810160405280929190818152602001828054610cf690611fab565b8015610d415780601f10610d1857610100808354040283529160200191610d41565b820191905f5260205f20905b815481529060010190602001808311610d2457829003601f168201915b505050505081565b610d5161164a565b6007546001600160a01b03163314610d7b5760405162461bcd60e51b81526004016106e290611fe3565b600e5460ff16610d9d5760405162461bcd60e51b81526004016106e29061201a565b600c80545f808355909190610db3600d82611c7f565b50600201805460ff191690556040517fb8d3c152e36194223bc973622372758ba5ea92f413e01274a9f6639ecc9f835f90610df39083908690869061213c565b60405180910390a1610e048161168f565b50610e0f6001600555565b5050565b5f5f195f610e2085610f8c565b9050610e2e338583886116b5565b949350505050565b60606004805461060390611fab565b5f336106a28185856115ed565b610e5a61164a565b6006546001600160a01b03163314610e845760405162461bcd60e51b81526004016106e2906120c3565b5f600b5460ff166001811115610e9c57610e9c611d6b565b14610eb95760405162461bcd60e51b81526004016106e2906120fa565b5f610ec2610567565b9050600954811015610f165760405162461bcd60e51b815260206004820152601f60248201527f50616472696e686f5661756c743a20676f616c206e6f7420726561636865640060448201526064016106e2565b600b805460ff191660011790556040518181527fdd8b35ffb50041925ed037e34fcdcdf1fd8f65ea70a80548238bc30b8ed2f52c9060200160405180910390a16006546001600160a01b03165f8181526020819052604090205490610f7e9080808585611747565b5050610f8a6001600555565b565b5f61068f826001611511565b5f5f610fa3836113f8565b905080851115610fcc57828582604051633fa733bb60e21b81526004016106e293929190612155565b5f610fd6866106ac565b9050610fe53386868985611747565b95945050505050565b5f5f610ff9836114f4565b90508085111561102257828582604051632e52afbb60e21b81526004016106e293929190612155565b5f61102c86610684565b9050610fe5338686848a611747565b61104361164a565b6006546001600160a01b0316331461106d5760405162461bcd60e51b81526004016106e2906120c3565b5f600b5460ff16600181111561108557611085611d6b565b146110a25760405162461bcd60e51b81526004016106e2906120fa565b5f83116110f15760405162461bcd60e51b815260206004820152601a60248201527f50616472696e686f5661756c743a207a65726f20616d6f756e7400000000000060448201526064016106e2565b6110f9610567565b8311156111545760405162461bcd60e51b815260206004820152602360248201527f50616472696e686f5661756c743a20696e73756666696369656e742062616c616044820152626e636560e81b60648201526084016106e2565b60095461115f610567565b106111c25760405162461bcd60e51b815260206004820152602d60248201527f50616472696e686f5661756c743a20676f616c20726561636865642c2075736560448201526c081dda5d1a191c985dd1dbd85b609a1b60648201526084016106e2565b6002600b54610100900460ff1660028111156111e0576111e0611d6b565b146111f3576111ee8361168f565b611315565b600e5460ff16156112555760405162461bcd60e51b815260206004820152602660248201527f50616472696e686f5661756c743a207265717565737420616c72656164792070604482015265656e64696e6760d01b60648201526084016106e2565b604051806060016040528084815260200183838080601f0160208091040260200160405190810160405280939291908181526020018383808284375f9201919091525050509082525060016020918201528151600c90815590820151600d906112be90826121d5565b50604091820151600291909101805460ff1916911515919091179055517fe21ee65d22ca73e62948637516eafe929496dca7c69123043c20b414526ca8d99061130c9085908590859061213c565b60405180910390a15b61131f6001600555565b505050565b6008546001600160a01b0316331461138a5760405162461bcd60e51b815260206004820152602360248201527f50616472696e686f5661756c743a206e6f742070656e64696e672070616472696044820152626e686f60e81b60648201526084016106e2565b60088054600780546001600160a01b03199081166001600160a01b038416908117909255909116909155600b805461ff0019166102001790556040517fa982e671f8359c1311442c4f352938431c46bbbe51e9fca8e5e19fe470ee282e905f90a2565b5f61068f825f611556565b6001600160a01b0381165f9081526020819052604081205461068f905f611511565b6006546001600160a01b031633146114445760405162461bcd60e51b81526004016106e2906120c3565b6001600b54610100900460ff16600281111561146257611462611d6b565b146114af5760405162461bcd60e51b815260206004820181905260248201527f50616472696e686f5661756c743a206e6f2070656e64696e6720696e7669746560448201526064016106e2565b600880546001600160a01b0319169055600b805461ff00191690556040517fb4959fe18a3455cb4ec40c5699dd01d345d59b7212f6d8c36e1643114a77d902905f90a1565b6001600160a01b0381165f9081526020819052604081205461068f565b5f61078761151d610567565b611528906001612290565b6115335f600a612386565b6002546115409190612290565b85919085611807565b61131f8383836001611849565b5f61078761156582600a612386565b6002546115729190612290565b61157a610567565b611540906001612290565b6001600160a01b038381165f908152600160209081526040808320938616835292905220545f1981146115e757818110156115d957828183604051637dc7a0d960e11b81526004016106e293929190612155565b6115e784848484035f611849565b50505050565b6001600160a01b03831661161657604051634b637e8f60e11b81525f60048201526024016106e2565b6001600160a01b03821661163f5760405163ec442f0560e01b81525f60048201526024016106e2565b61131f83838361190d565b60026005540361166d57604051633ee5aeb560e01b815260040160405180910390fd5b6002600555565b5f5f195f611681856113ed565b9050610e2e338587846116b5565b5f611699826106ac565b600654909150610e0f906001600160a01b031680808585611747565b6116e17f0000000000000000000000000000000000000000000000000000000000000000853085611a20565b6116eb8382611a87565b826001600160a01b0316846001600160a01b03167fdcbc1c05240f31ff3ad067ef1ee35ce4997762752e3a095284754544f4c709d78484604051611739929190918252602082015260400190565b60405180910390a350505050565b826001600160a01b0316856001600160a01b03161461176b5761176b838683611585565b6117758382611abb565b6117a07f00000000000000000000000000000000000000000000000000000000000000008584611aef565b826001600160a01b0316846001600160a01b0316866001600160a01b03167ffbde797d201c681b91056529119e0b02407c7bb96a4a2c75c01fc9667232c8db85856040516117f8929190918252602082015260400190565b60405180910390a45050505050565b5f61183461181483611b20565b801561182f57505f848061182a5761182a612394565b868809115b151590565b61183f868686611b4c565b610fe59190612290565b6001600160a01b0384166118725760405163e602df0560e01b81525f60048201526024016106e2565b6001600160a01b03831661189b57604051634a1406b160e11b81525f60048201526024016106e2565b6001600160a01b038085165f90815260016020908152604080832093871683529290522082905580156115e757826001600160a01b0316846001600160a01b03167f8c5be1e5ebec7d5bd14f71427d1e84f3dd0314c0f7b2291e5b200ac8c7c3b9258460405161173991815260200190565b6001600160a01b038316611937578060025f82825461192c9190612290565b909155506119949050565b6001600160a01b0383165f90815260208190526040902054818110156119765783818360405163391434e360e21b81526004016106e293929190612155565b6001600160a01b0384165f9081526020819052604090209082900390555b6001600160a01b0382166119b0576002805482900390556119ce565b6001600160a01b0382165f9081526020819052604090208054820190555b816001600160a01b0316836001600160a01b03167fddf252ad1be2c89b69c2b068fc378daa952ba7f163c4a11628f55a4df523b3ef83604051611a1391815260200190565b60405180910390a3505050565b6040516001600160a01b0384811660248301528381166044830152606482018390526115e79186918216906323b872dd906084015b604051602081830303815290604052915060e01b6020820180516001600160e01b038381831617835250505050611c02565b6001600160a01b038216611ab05760405163ec442f0560e01b81525f60048201526024016106e2565b610e0f5f838361190d565b6001600160a01b038216611ae457604051634b637e8f60e11b81525f60048201526024016106e2565b610e0f825f8361190d565b6040516001600160a01b0383811660248301526044820183905261131f91859182169063a9059cbb90606401611a55565b5f6002826003811115611b3557611b35611d6b565b611b3f91906123a8565b60ff166001149050919050565b5f838302815f1985870982811083820303915050805f03611b8057838281611b7657611b76612394565b0492505050610787565b808411611b9757611b976003851502601118611c6e565b5f848688095f868103871696879004966002600389028118808a02820302808a02820302808a02820302808a02820302808a02820302808a02909103029181900381900460010186841190950394909402919094039290920491909117919091029150509392505050565b5f5f60205f8451602086015f885af180611c21576040513d5f823e3d81fd5b50505f513d91508115611c38578060011415611c45565b6001600160a01b0384163b155b156115e757604051635274afe760e01b81526001600160a01b03851660048201526024016106e2565b634e487b715f52806020526024601cfd5b508054611c8b90611fab565b5f825580601f10611c9a575050565b601f0160209004905f5260205f2090810190611cb69190611cb9565b50565b5b80821115611ccd575f8155600101611cba565b5090565b5f81518084528060208401602086015e5f602082860101526020601f19601f83011685010191505092915050565b602081525f6107876020830184611cd1565b5f60208284031215611d21575f5ffd5b5035919050565b80356001600160a01b0381168114611d3e575f5ffd5b919050565b5f5f60408385031215611d54575f5ffd5b611d5d83611d28565b946020939093013593505050565b634e487b7160e01b5f52602160045260245ffd5b6020810160028310611d9357611d93611d6b565b91905290565b5f5f83601f840112611da9575f5ffd5b50813567ffffffffffffffff811115611dc0575f5ffd5b602083019150836020828501011115611dd7575f5ffd5b9250929050565b5f5f60208385031215611def575f5ffd5b823567ffffffffffffffff811115611e05575f5ffd5b611e1185828601611d99565b90969095509350505050565b5f5f5f60608486031215611e2f575f5ffd5b611e3884611d28565b9250611e4660208501611d28565b929592945050506040919091013590565b60208152815160208201525f602083015160606040840152611e7c6080840182611cd1565b90506040840151151560608401528091505092915050565b5f60208284031215611ea4575f5ffd5b61078782611d28565b5f5f60408385031215611ebe575f5ffd5b82359150611ece60208401611d28565b90509250929050565b6020810160038310611d9357611d93611d6b565b5f5f5f60608486031215611efd575f5ffd5b83359250611f0d60208501611d28565b9150611f1b60408501611d28565b90509250925092565b5f5f5f60408486031215611f36575f5ffd5b83359250602084013567ffffffffffffffff811115611f53575f5ffd5b611f5f86828701611d99565b9497909650939450505050565b5f5f60408385031215611f7d575f5ffd5b611f8683611d28565b9150611ece60208401611d28565b5f60208284031215611fa4575f5ffd5b5051919050565b600181811c90821680611fbf57607f821691505b602082108103611fdd57634e487b7160e01b5f52602260045260245ffd5b50919050565b6020808252601b908201527f50616472696e686f5661756c743a206e6f742070616472696e686f0000000000604082015260600190565b60208082526021908201527f50616472696e686f5661756c743a206e6f2070656e64696e67207265717565736040820152601d60fa1b606082015260800190565b81835281816020850137505f828201602090810191909152601f909101601f19169091010190565b602081525f610e2e60208301848661205b565b634e487b7160e01b5f52601160045260245ffd5b60ff818116838216019081111561068f5761068f612096565b6020808252601b908201527f50616472696e686f5661756c743a206e6f74206166696c6861646f0000000000604082015260600190565b60208082526022908201527f50616472696e686f5661756c743a206f626a65637469766520636f6d706c6574604082015261195960f21b606082015260800190565b838152604060208201525f610fe560408301848661205b565b6001600160a01b039390931683526020830191909152604082015260600190565b634e487b7160e01b5f52604160045260245ffd5b601f82111561131f57805f5260205f20601f840160051c810160208510156121af5750805b601f840160051c820191505b818110156121ce575f81556001016121bb565b5050505050565b815167ffffffffffffffff8111156121ef576121ef612176565b612203816121fd8454611fab565b8461218a565b6020601f821160018114612235575f831561221e5750848201515b5f19600385901b1c1916600184901b1784556121ce565b5f84815260208120601f198516915b828110156122645787850151825560209485019460019092019101612244565b508482101561228157868401515f19600387901b60f8161c191681555b50505050600190811b01905550565b8082018082111561068f5761068f612096565b6001815b60018411156122de578085048111156122c2576122c2612096565b60018416156122d057908102905b60019390931c9280026122a7565b935093915050565b5f826122f45750600161068f565b8161230057505f61068f565b816001811461231657600281146123205761233c565b600191505061068f565b60ff84111561233157612331612096565b50506001821b61068f565b5060208310610133831016604e8410600b841016171561235f575081810a61068f565b61236b5f1984846122a3565b805f190482111561237e5761237e612096565b029392505050565b5f61078760ff8416836122e6565b634e487b7160e01b5f52601260045260245ffd5b5f60ff8316806123c657634e487b7160e01b5f52601260045260245ffd5b8060ff8416069150509291505056fea2646970667358221220403ecd7f7eb3a595c32e50b6e6d80e038e395fb65326cc1c283ca65cef84d60564736f6c634300081c0033a2646970667358221220a7e7b42cfabd2bdcd891adeb53600b1c5736eccf07312774bad90ecf1245890564736f6c634300081c0033","linkReferences":{}},"methodIdentifiers":{"createObjective(string,uint256,address)":"9aae8c83","getObjectivesByAfilhado(address)":"06e5a729","getObjectivesByPadrinho(address)":"9740a9d4","usdc()":"3e413bee"},"id":43}